{"abi":[{"type":"constructor","inputs":[],"stateMutability":"nonpayable"},{"type":"function","name":"getMessage","inputs":[],"outputs":[{"name":"","type":"string","internalType":"string"}],"stateMutability":"view"},{"type":"function","name":"owner","inputs":[],"outputs":[{"name":"","type":"address","internalType":"address"}],"stateMutability":"view"},{"type":"function","name":"setMessage","inputs":[{"name":"_message","type":"string","internalType":"string"}],"outputs":[],"stateMutability":"nonpayable"},{"type":"event","name":"MessageUpdated","inputs":[{"name":"newMessage","type":"string","indexed":false,"internalType":"string"},{"name":"updatedBy","type":"address","indexed":false,"internalType":"address"}],"anonymous":false}],"bytecode":{"object":"0x608060405234801561000f575f5ffd5b503360015f6101000a81548173ffffffffffffffffffffffffffffffffffffffff021916908373ffffffffffffffffffffffffffffffffffffffff1602179055506040518060400160405280600d81526020017f48656c6c6f2052697475616c21000000000000000000000000000000000000008152505f908161009391906102e7565b506103b6565b5f81519050919050565b7f4e487b71000000000000000000000000000000000000000000000000000000005f52604160045260245ffd5b7f4e487b71000000000000000000000000000000000000000000000000000000005f52602260045260245ffd5b5f600282049050600182168061011457607f821691505b602082108103610127576101266100d0565b5b50919050565b5f819050815f5260205f209050919050565b5f6020601f8301049050919050565b5f82821b905092915050565b5f600883026101897fffffffffffffffffffffffffffffffffffffffffffffffffffffffffffffffff8261014e565b610193868361014e565b95508019841693508086168417925050509392505050565b5f819050919050565b5f819050919050565b5f6101d76101d26101cd846101ab565b6101b4565b6101ab565b9050919050565b5f819050919050565b6101f0836101bd565b6102046101fc826101de565b84845461015a565b825550505050565b5f5f905090565b61021b61020c565b6102268184846101e7565b505050565b5f5b8281101561024c576102415f828401610213565b60018101905061022d565b505050565b601f82111561029f578282111561029e5761026b8161012d565b6102748361013f565b61027d8561013f565b602086101561028a575f90505b8083016102998284038261022b565b505050505b5b505050565b5f82821c905092915050565b5f6102bf5f19846008026102a4565b1980831691505092915050565b5f6102d783836102b0565b9150826002028217905092915050565b6102f082610099565b67ffffffffffffffff811115610309576103086100a3565b5b61031382546100fd565b61031e828285610251565b5f60209050601f83116001811461034f575f841561033d578287015190505b61034785826102cc565b8655506103ae565b601f19841661035d8661012d565b5f5b828110156103845784890151825560018201915060208501945060208101905061035f565b868310156103a1578489015161039d601f8916826102b0565b8355505b6001600288020188555050505b505050505050565b61076a806103c35f395ff3fe608060405234801561000f575f5ffd5b506004361061003f575f3560e01c8063368b8772146100435780638da5cb5b1461005f578063ce6d41de1461007d575b5f5ffd5b61005d600480360381019061005891906102e7565b61009b565b005b6100676100e6565b604051610074919061036d565b60405180910390f35b61008561010b565b6040516100929190610400565b60405180910390f35b805f90816100a99190610637565b507ff698274c763364531193e20038371a4660026b8b139255b9e7629629162f344881336040516100db929190610706565b60405180910390a150565b60015f9054906101000a900473ffffffffffffffffffffffffffffffffffffffff1681565b60605f80546101199061044d565b80601f01602080910402602001604051908101604052809291908181526020018280546101459061044d565b80156101905780601f1061016757610100808354040283529160200191610190565b820191905f5260205f20905b81548152906001019060200180831161017357829003601f168201915b5050505050905090565b5f604051905090565b5f5ffd5b5f5ffd5b5f5ffd5b5f5ffd5b5f601f19601f8301169050919050565b7f4e487b71000000000000000000000000000000000000000000000000000000005f52604160045260245ffd5b6101f9826101b3565b810181811067ffffffffffffffff82111715610218576102176101c3565b5b80604052505050565b5f61022a61019a565b905061023682826101f0565b919050565b5f67ffffffffffffffff821115610255576102546101c3565b5b61025e826101b3565b9050602081019050919050565b828183375f83830152505050565b5f61028b6102868461023b565b610221565b9050828152602081018484840111156102a7576102a66101af565b5b6102b284828561026b565b509392505050565b5f82601f8301126102ce576102cd6101ab565b5b81356102de848260208601610279565b91505092915050565b5f602082840312156102fc576102fb6101a3565b5b5f82013567ffffffffffffffff811115610319576103186101a7565b5b610325848285016102ba565b91505092915050565b5f73ffffffffffffffffffffffffffffffffffffffff82169050919050565b5f6103578261032e565b9050919050565b6103678161034d565b82525050565b5f6020820190506103805f83018461035e565b92915050565b5f81519050919050565b5f82825260208201905092915050565b5f5b838110156103bd5780820151818401526020810190506103a2565b5f8484015250505050565b5f6103d282610386565b6103dc8185610390565b93506103ec8185602086016103a0565b6103f5816101b3565b840191505092915050565b5f6020820190508181035f83015261041881846103c8565b905092915050565b7f4e487b71000000000000000000000000000000000000000000000000000000005f52602260045260245ffd5b5f600282049050600182168061046457607f821691505b60208210810361047757610476610420565b5b50919050565b5f819050815f5260205f209050919050565b5f6020601f8301049050919050565b5f82821b905092915050565b5f600883026104d97fffffffffffffffffffffffffffffffffffffffffffffffffffffffffffffffff8261049e565b6104e3868361049e565b95508019841693508086168417925050509392505050565b5f819050919050565b5f819050919050565b5f61052761052261051d846104fb565b610504565b6104fb565b9050919050565b5f819050919050565b6105408361050d565b61055461054c8261052e565b8484546104aa565b825550505050565b5f5f905090565b61056b61055c565b610576818484610537565b505050565b5f5b8281101561059c576105915f828401610563565b60018101905061057d565b505050565b601f8211156105ef57828211156105ee576105bb8161047d565b6105c48361048f565b6105cd8561048f565b60208610156105da575f90505b8083016105e98284038261057b565b505050505b5b505050565b5f82821c905092915050565b5f61060f5f19846008026105f4565b1980831691505092915050565b5f6106278383610600565b9150826002028217905092915050565b61064082610386565b67ffffffffffffffff811115610659576106586101c3565b5b610663825461044d565b61066e8282856105a1565b5f60209050601f83116001811461069f575f841561068d578287015190505b610697858261061c565b8655506106fe565b601f1984166106ad8661047d565b5f5b828110156106d4578489015182556001820191506020850194506020810190506106af565b868310156106f157848901516106ed601f891682610600565b8355505b6001600288020188555050505b505050505050565b5f6040820190508181035f83015261071e81856103c8565b905061072d602083018461035e565b939250505056fea2646970667358221220f5fe264bc9c9ef6f944faba8180030074430cba5771f3da16ed284612930a7ef64736f6c63430008220033","linkReferences":{}},"methodIdentifiers":{"getMessage()":"ce6d41de","owner()":"8da5cb5b","setMessage(string)":"368b8772"},"id":22}