{"abi":[{"type":"constructor","inputs":[],"stateMutability":"nonpayable"},{"type":"function","name":"candidates","inputs":[{"name":"","type":"uint256","internalType":"uint256"}],"outputs":[{"name":"name","type":"string","internalType":"string"},{"name":"wallet","type":"address","internalType":"address"},{"name":"imageUrl","type":"string","internalType":"string"},{"name":"voteCount","type":"uint256","internalType":"uint256"}],"stateMutability":"view"},{"type":"function","name":"getCandidate","inputs":[{"name":"index","type":"uint256","internalType":"uint256"}],"outputs":[{"name":"","type":"string","internalType":"string"},{"name":"","type":"address","internalType":"address"},{"name":"","type":"string","internalType":"string"},{"name":"","type":"uint256","internalType":"uint256"}],"stateMutability":"view"},{"type":"function","name":"getCandidateCount","inputs":[],"outputs":[{"name":"","type":"uint256","internalType":"uint256"}],"stateMutability":"view"},{"type":"function","name":"hasVoted","inputs":[{"name":"voter","type":"address","internalType":"address"}],"outputs":[{"name":"","type":"bool","internalType":"bool"}],"stateMutability":"view"},{"type":"function","name":"hasVotedForCandidate","inputs":[{"name":"","type":"address","internalType":"address"},{"name":"","type":"uint256","internalType":"uint256"}],"outputs":[{"name":"","type":"bool","internalType":"bool"}],"stateMutability":"view"},{"type":"function","name":"isRegistered","inputs":[{"name":"","type":"address","internalType":"address"}],"outputs":[{"name":"","type":"bool","internalType":"bool"}],"stateMutability":"view"},{"type":"function","name":"owner","inputs":[],"outputs":[{"name":"","type":"address","internalType":"address"}],"stateMutability":"view"},{"type":"function","name":"registerCandidate","inputs":[{"name":"_name","type":"string","internalType":"string"},{"name":"_imageUrl","type":"string","internalType":"string"}],"outputs":[],"stateMutability":"nonpayable"},{"type":"function","name":"toggleVoting","inputs":[],"outputs":[],"stateMutability":"nonpayable"},{"type":"function","name":"vote","inputs":[{"name":"candidateIndex","type":"uint256","internalType":"uint256"}],"outputs":[],"stateMutability":"nonpayable"},{"type":"function","name":"voteCountOfAddress","inputs":[{"name":"","type":"address","internalType":"address"}],"outputs":[{"name":"","type":"uint256","internalType":"uint256"}],"stateMutability":"view"},{"type":"function","name":"votingOpen","inputs":[],"outputs":[{"name":"","type":"bool","internalType":"bool"}],"stateMutability":"view"},{"type":"event","name":"CandidateRegistered","inputs":[{"name":"name","type":"string","indexed":false,"internalType":"string"},{"name":"wallet","type":"address","indexed":false,"internalType":"address"}],"anonymous":false},{"type":"event","name":"Voted","inputs":[{"name":"voter","type":"address","indexed":false,"internalType":"address"},{"name":"candidateIndex","type":"uint256","indexed":false,"internalType":"uint256"}],"anonymous":false}],"bytecode":{"object":"0x6080604052348015600e575f5ffd5b50335f5f6101000a81548173ffffffffffffffffffffffffffffffffffffffff021916908373ffffffffffffffffffffffffffffffffffffffff16021790555060015f60146101000a81548160ff021916908315150217905550611762806100755f395ff3fe608060405234801561000f575f5ffd5b50600436106100b2575f3560e01c80634fab728a1161006f5780634fab728a146101a25780638da5cb5b146101d2578063a95824b4146101f0578063aae3bd471461020e578063b4153c6214610218578063c3c5a54714610248576100b2565b80630121b93f146100b657806309eef43e146100d25780630dbce4dd1461010257806330a563471461011e5780633477ee2e1461013c57806335b8e8201461016f575b5f5ffd5b6100d060048036038101906100cb9190610cfb565b610278565b005b6100ec60048036038101906100e79190610d80565b610550565b6040516100f99190610dc5565b60405180910390f35b61011c60048036038101906101179190610f1a565b61059a565b005b6101266107df565b6040516101339190610f9f565b60405180910390f35b61015660048036038101906101519190610cfb565b6107eb565b6040516101669493929190611041565b60405180910390f35b61018960048036038101906101849190610cfb565b610951565b6040516101999493929190611041565b60405180910390f35b6101bc60048036038101906101b79190611092565b610b6d565b6040516101c99190610dc5565b60405180910390f35b6101da610b97565b6040516101e791906110d0565b60405180910390f35b6101f8610bbb565b6040516102059190610dc5565b60405180910390f35b610216610bcd565b005b610232600480360381019061022d9190610d80565b610c85565b60405161023f9190610f9f565b60405180910390f35b610262600480360381019061025d9190610d80565b610c9a565b60405161026f9190610dc5565b60405180910390f35b5f60149054906101000a900460ff166102c6576040517f08c379a00000000000000000000000000000000000000000000000000000000081526004016102bd90611133565b60405180910390fd5b600360025f3373ffffffffffffffffffffffffffffffffffffffff1673ffffffffffffffffffffffffffffffffffffffff1681526020019081526020015f205410610346576040517f08c379a000000000000000000000000000000000000000000000000000000000815260040161033d9061119b565b60405180910390fd5b60045f3373ffffffffffffffffffffffffffffffffffffffff1673ffffffffffffffffffffffffffffffffffffffff1681526020019081526020015f205f8281526020019081526020015f205f9054906101000a900460ff16156103df576040517f08c379a00000000000000000000000000000000000000000000000000000000081526004016103d690611203565b60405180910390fd5b6001805490508110610426576040517f08c379a000000000000000000000000000000000000000000000000000000000815260040161041d9061126b565b60405180910390fd5b6001818154811061043a57610439611289565b5b905f5260205f2090600402016003015f815480929190610459906112e3565b919050555060025f3373ffffffffffffffffffffffffffffffffffffffff1673ffffffffffffffffffffffffffffffffffffffff1681526020019081526020015f205f8154809291906104ab906112e3565b9190505550600160045f3373ffffffffffffffffffffffffffffffffffffffff1673ffffffffffffffffffffffffffffffffffffffff1681526020019081526020015f205f8381526020019081526020015f205f6101000a81548160ff0219169083151502179055507f4d99b957a2bc29a30ebd96a7be8e68fe50a3c701db28a91436490b7d53870ca4338260405161054592919061132a565b60405180910390a150565b5f600360025f8473ffffffffffffffffffffffffffffffffffffffff1673ffffffffffffffffffffffffffffffffffffffff1681526020019081526020015f205410159050919050565b5f60149054906101000a900460ff166105e8576040517f08c379a00000000000000000000000000000000000000000000000000000000081526004016105df90611133565b60405180910390fd5b60035f3373ffffffffffffffffffffffffffffffffffffffff1673ffffffffffffffffffffffffffffffffffffffff1681526020019081526020015f205f9054906101000a900460ff1615610672576040517f08c379a00000000000000000000000000000000000000000000000000000000081526004016106699061139b565b60405180910390fd5b600160405180608001604052808481526020013373ffffffffffffffffffffffffffffffffffffffff1681526020018381526020015f815250908060018154018082558091505060019003905f5260205f2090600402015f909190919091505f820151815f0190816106e491906115c7565b506020820151816001015f6101000a81548173ffffffffffffffffffffffffffffffffffffffff021916908373ffffffffffffffffffffffffffffffffffffffff160217905550604082015181600201908161074091906115c7565b50606082015181600301555050600160035f3373ffffffffffffffffffffffffffffffffffffffff1673ffffffffffffffffffffffffffffffffffffffff1681526020019081526020015f205f6101000a81548160ff0219169083151502179055507fd13c0f94040a8ce9625a1aaefda862d7aa4723f25aab59446f073da43dd8229382336040516107d3929190611696565b60405180910390a15050565b5f600180549050905090565b600181815481106107fa575f80fd5b905f5260205f2090600402015f91509050805f018054610819906113e6565b80601f0160208091040260200160405190810160405280929190818152602001828054610845906113e6565b80156108905780601f1061086757610100808354040283529160200191610890565b820191905f5260205f20905b81548152906001019060200180831161087357829003601f168201915b505050505090806001015f9054906101000a900473ffffffffffffffffffffffffffffffffffffffff16908060020180546108ca906113e6565b80601f01602080910402602001604051908101604052809291908181526020018280546108f6906113e6565b80156109415780601f1061091857610100808354040283529160200191610941565b820191905f5260205f20905b81548152906001019060200180831161092457829003601f168201915b5050505050908060030154905084565b60605f60605f600180549050851061099e576040517f08c379a00000000000000000000000000000000000000000000000000000000081526004016109959061126b565b60405180910390fd5b600185815481106109b2576109b1611289565b5b905f5260205f2090600402015f01600186815481106109d4576109d3611289565b5b905f5260205f2090600402016001015f9054906101000a900473ffffffffffffffffffffffffffffffffffffffff1660018781548110610a1757610a16611289565b5b905f5260205f20906004020160020160018881548110610a3a57610a39611289565b5b905f5260205f20906004020160030154838054610a56906113e6565b80601f0160208091040260200160405190810160405280929190818152602001828054610a82906113e6565b8015610acd5780601f10610aa457610100808354040283529160200191610acd565b820191905f5260205f20905b815481529060010190602001808311610ab057829003601f168201915b50505050509350818054610ae0906113e6565b80601f0160208091040260200160405190810160405280929190818152602001828054610b0c906113e6565b8015610b575780601f10610b2e57610100808354040283529160200191610b57565b820191905f5260205f20905b815481529060010190602001808311610b3a57829003601f168201915b5050505050915093509350935093509193509193565b6004602052815f5260405f20602052805f5260405f205f915091509054906101000a900460ff1681565b5f5f9054906101000a900473ffffffffffffffffffffffffffffffffffffffff1681565b5f60149054906101000a900460ff1681565b5f5f9054906101000a900473ffffffffffffffffffffffffffffffffffffffff1673ffffffffffffffffffffffffffffffffffffffff163373ffffffffffffffffffffffffffffffffffffffff1614610c5b576040517f08c379a0000000000000000000000000000000000000000000000000000000008152600401610c529061170e565b60405180910390fd5b5f60149054906101000a900460ff16155f60146101000a81548160ff021916908315150217905550565b6002602052805f5260405f205f915090505481565b6003602052805f5260405f205f915054906101000a900460ff1681565b5f604051905090565b5f5ffd5b5f5ffd5b5f819050919050565b610cda81610cc8565b8114610ce4575f5ffd5b50565b5f81359050610cf581610cd1565b92915050565b5f60208284031215610d1057610d0f610cc0565b5b5f610d1d84828501610ce7565b91505092915050565b5f73ffffffffffffffffffffffffffffffffffffffff82169050919050565b5f610d4f82610d26565b9050919050565b610d5f81610d45565b8114610d69575f5ffd5b50565b5f81359050610d7a81610d56565b92915050565b5f60208284031215610d9557610d94610cc0565b5b5f610da284828501610d6c565b91505092915050565b5f8115159050919050565b610dbf81610dab565b82525050565b5f602082019050610dd85f830184610db6565b92915050565b5f5ffd5b5f5ffd5b5f601f19601f8301169050919050565b7f4e487b71000000000000000000000000000000000000000000000000000000005f52604160045260245ffd5b610e2c82610de6565b810181811067ffffffffffffffff82111715610e4b57610e4a610df6565b5b80604052505050565b5f610e5d610cb7565b9050610e698282610e23565b919050565b5f67ffffffffffffffff821115610e8857610e87610df6565b5b610e9182610de6565b9050602081019050919050565b828183375f83830152505050565b5f610ebe610eb984610e6e565b610e54565b905082815260208101848484011115610eda57610ed9610de2565b5b610ee5848285610e9e565b509392505050565b5f82601f830112610f0157610f00610dde565b5b8135610f11848260208601610eac565b91505092915050565b5f5f60408385031215610f3057610f2f610cc0565b5b5f83013567ffffffffffffffff811115610f4d57610f4c610cc4565b5b610f5985828601610eed565b925050602083013567ffffffffffffffff811115610f7a57610f79610cc4565b5b610f8685828601610eed565b9150509250929050565b610f9981610cc8565b82525050565b5f602082019050610fb25f830184610f90565b92915050565b5f81519050919050565b5f82825260208201905092915050565b5f5b83811015610fef578082015181840152602081019050610fd4565b5f8484015250505050565b5f61100482610fb8565b61100e8185610fc2565b935061101e818560208601610fd2565b61102781610de6565b840191505092915050565b61103b81610d45565b82525050565b5f6080820190508181035f8301526110598187610ffa565b90506110686020830186611032565b818103604083015261107a8185610ffa565b90506110896060830184610f90565b95945050505050565b5f5f604083850312156110a8576110a7610cc0565b5b5f6110b585828601610d6c565b92505060206110c685828601610ce7565b9150509250929050565b5f6020820190506110e35f830184611032565b92915050565b7f566f74696e6720697320636c6f736564000000000000000000000000000000005f82015250565b5f61111d601083610fc2565b9150611128826110e9565b602082019050919050565b5f6020820190508181035f83015261114a81611111565b9050919050565b7f4d6178203320766f74657320616c6c6f776564000000000000000000000000005f82015250565b5f611185601383610fc2565b915061119082611151565b602082019050919050565b5f6020820190508181035f8301526111b281611179565b9050919050565b7f416c726561647920766f74656420666f7220746869732063616e6469646174655f82015250565b5f6111ed602083610fc2565b91506111f8826111b9565b602082019050919050565b5f6020820190508181035f83015261121a816111e1565b9050919050565b7f496e76616c69642063616e6469646174650000000000000000000000000000005f82015250565b5f611255601183610fc2565b915061126082611221565b602082019050919050565b5f6020820190508181035f83015261128281611249565b9050919050565b7f4e487b71000000000000000000000000000000000000000000000000000000005f52603260045260245ffd5b7f4e487b71000000000000000000000000000000000000000000000000000000005f52601160045260245ffd5b5f6112ed82610cc8565b91507fffffffffffffffffffffffffffffffffffffffffffffffffffffffffffffffff820361131f5761131e6112b6565b5b600182019050919050565b5f60408201905061133d5f830185611032565b61134a6020830184610f90565b9392505050565b7f416c7265616479207265676973746572656400000000000000000000000000005f82015250565b5f611385601283610fc2565b915061139082611351565b602082019050919050565b5f6020820190508181035f8301526113b281611379565b9050919050565b7f4e487b71000000000000000000000000000000000000000000000000000000005f52602260045260245ffd5b5f60028204905060018216806113fd57607f821691505b6020821081036114105761140f6113b9565b5b50919050565b5f819050815f5260205f209050919050565b5f6020601f8301049050919050565b5f82821b905092915050565b5f600883026114727fffffffffffffffffffffffffffffffffffffffffffffffffffffffffffffffff82611437565b61147c8683611437565b95508019841693508086168417925050509392505050565b5f819050919050565b5f6114b76114b26114ad84610cc8565b611494565b610cc8565b9050919050565b5f819050919050565b6114d08361149d565b6114e46114dc826114be565b848454611443565b825550505050565b5f5f905090565b6114fb6114ec565b6115068184846114c7565b505050565b5f5b8281101561152c576115215f8284016114f3565b60018101905061150d565b505050565b601f82111561157f578282111561157e5761154b81611416565b61155483611428565b61155d85611428565b602086101561156a575f90505b8083016115798284038261150b565b505050505b5b505050565b5f82821c905092915050565b5f61159f5f1984600802611584565b1980831691505092915050565b5f6115b78383611590565b9150826002028217905092915050565b6115d082610fb8565b67ffffffffffffffff8111156115e9576115e8610df6565b5b6115f382546113e6565b6115fe828285611531565b5f60209050601f83116001811461162f575f841561161d578287015190505b61162785826115ac565b86555061168e565b601f19841661163d86611416565b5f5b828110156116645784890151825560018201915060208501945060208101905061163f565b86831015611681578489015161167d601f891682611590565b8355505b6001600288020188555050505b505050505050565b5f6040820190508181035f8301526116ae8185610ffa565b90506116bd6020830184611032565b9392505050565b7f4f6e6c79206f776e6572000000000000000000000000000000000000000000005f82015250565b5f6116f8600a83610fc2565b9150611703826116c4565b602082019050919050565b5f6020820190508181035f830152611725816116ec565b905091905056fea2646970667358221220eb5661e153887dd5556d0248c5d013e1fe94298ec6aedb021189c17011fb346764736f6c63430008220033","linkReferences":{}},"methodIdentifiers":{"candidates(uint256)":"3477ee2e","getCandidate(uint256)":"35b8e820","getCandidateCount()":"30a56347","hasVoted(address)":"09eef43e","hasVotedForCandidate(address,uint256)":"4fab728a","isRegistered(address)":"c3c5a547","owner()":"8da5cb5b","registerCandidate(string,string)":"0dbce4dd","toggleVoting()":"aae3bd47","vote(uint256)":"0121b93f","voteCountOfAddress(address)":"b4153c62","votingOpen()":"a95824b4"},"id":23}